{
  "contractName": "Market",
  "abi": [
    {
      "inputs": [],
      "payable": false,
      "stateMutability": "nonpayable",
      "type": "constructor"
    },
    {
      "anonymous": false,
      "inputs": [
        {
          "indexed": false,
          "internalType": "uint256",
          "name": "_uid",
          "type": "uint256"
        }
      ],
      "name": "ItemCreated",
      "type": "event"
    },
    {
      "anonymous": false,
      "inputs": [
        {
          "indexed": false,
          "internalType": "uint256",
          "name": "_uid",
          "type": "uint256"
        }
      ],
      "name": "Purchase",
      "type": "event"
    },
    {
      "constant": true,
      "inputs": [],
      "name": "itemCount",
      "outputs": [
        {
          "internalType": "uint256",
          "name": "",
          "type": "uint256"
        }
      ],
      "payable": false,
      "stateMutability": "view",
      "type": "function"
    },
    {
      "constant": true,
      "inputs": [
        {
          "internalType": "uint256",
          "name": "",
          "type": "uint256"
        }
      ],
      "name": "items",
      "outputs": [
        {
          "internalType": "uint256",
          "name": "uid",
          "type": "uint256"
        },
        {
          "internalType": "string",
          "name": "name",
          "type": "string"
        },
        {
          "internalType": "string",
          "name": "link",
          "type": "string"
        },
        {
          "internalType": "uint256",
          "name": "price",
          "type": "uint256"
        }
      ],
      "payable": false,
      "stateMutability": "view",
      "type": "function"
    },
    {
      "constant": true,
      "inputs": [],
      "name": "store_owner",
      "outputs": [
        {
          "internalType": "address payable",
          "name": "",
          "type": "address"
        }
      ],
      "payable": false,
      "stateMutability": "view",
      "type": "function"
    },
    {
      "constant": false,
      "inputs": [
        {
          "internalType": "string",
          "name": "_name",
          "type": "string"
        },
        {
          "internalType": "uint256",
          "name": "_price",
          "type": "uint256"
        },
        {
          "internalType": "string",
          "name": "_link",
          "type": "string"
        }
      ],
      "name": "createItem",
      "outputs": [],
      "payable": false,
      "stateMutability": "nonpayable",
      "type": "function"
    },
    {
      "constant": false,
      "inputs": [
        {
          "internalType": "uint256",
          "name": "_uid",
          "type": "uint256"
        }
      ],
      "name": "purchaseItem",
      "outputs": [
        {
          "internalType": "string",
          "name": "link",
          "type": "string"
        }
      ],
      "payable": true,
      "stateMutability": "payable",
      "type": "function"
    },
    {
      "constant": false,
      "inputs": [],
      "name": "withdrawBalance",
      "outputs": [],
      "payable": false,
      "stateMutability": "nonpayable",
      "type": "function"
    }
  ],
  "bytecode": "0x6080604052735660df1681a32e70704439e9243b1b91c369580e6000806101000a81548173ffffffffffffffffffffffffffffffffffffffff021916908373ffffffffffffffffffffffffffffffffffffffff16021790555034801561006457600080fd5b506100e76040518060400160405280600581526020017f426f6f6b58000000000000000000000000000000000000000000000000000000815250662386f26fc100006040518060400160405280600b81526020017f73746168736873696469640000000000000000000000000000000000000000008152506100ec60201b60201c565b61032c565b6000809054906101000a900473ffffffffffffffffffffffffffffffffffffffff1673ffffffffffffffffffffffffffffffffffffffff163373ffffffffffffffffffffffffffffffffffffffff16146101ae576040517f08c379a000000000000000000000000000000000000000000000000000000000815260040180806020018281038252601b8152602001807f4f6e6c79206f776e65722063616e20637265617465206173736574000000000081525060200191505060405180910390fd5b600260008154809291906001019190505550604051806080016040528060025481526020018481526020018281526020018381525060016000600254815260200190815260200160002060008201518160000155602082015181600101908051906020019061021e929190610287565b50604082015181600201908051906020019061023b929190610287565b50606082015181600301559050507fa26a7a3d8c7ebb9fc47c7fdfd8af05a15da0ff8d51b883930669ed3ee87f09de6002546040518082815260200191505060405180910390a1505050565b828054600181600116156101000203166002900490600052602060002090601f016020900481019282601f106102c857805160ff19168380011785556102f6565b828001600101855582156102f6579182015b828111156102f55782518255916020019190600101906102da565b5b5090506103039190610307565b5090565b61032991905b8082111561032557600081600090555060010161030d565b5090565b90565b610aee8061033b6000396000f3fe6080604052600436106100555760003560e01c80630defa6471461005a5780633457770d146100b15780635fd8c7101461021a5780636bfb0d0114610231578063bfb231d21461025c578063d38ea5bf1461038a575b600080fd5b34801561006657600080fd5b5061006f610431565b604051808273ffffffffffffffffffffffffffffffffffffffff1673ffffffffffffffffffffffffffffffffffffffff16815260200191505060405180910390f35b3480156100bd57600080fd5b50610218600480360360608110156100d457600080fd5b81019080803590602001906401000000008111156100f157600080fd5b82018360208201111561010357600080fd5b8035906020019184600183028401116401000000008311171561012557600080fd5b91908080601f016020809104026020016040519081016040528093929190818152602001838380828437600081840152601f19601f820116905080830192505050505050509192919290803590602001909291908035906020019064010000000081111561019257600080fd5b8201836020820111156101a457600080fd5b803590602001918460018302840111640100000000831117156101c657600080fd5b91908080601f016020809104026020016040519081016040528093929190818152602001838380828437600081840152601f19601f820116905080830192505050505050509192919290505050610456565b005b34801561022657600080fd5b5061022f6105f1565b005b34801561023d57600080fd5b50610246610734565b6040518082815260200191505060405180910390f35b34801561026857600080fd5b506102956004803603602081101561027f57600080fd5b810190808035906020019092919050505061073a565b604051808581526020018060200180602001848152602001838103835286818151815260200191508051906020019080838360005b838110156102e55780820151818401526020810190506102ca565b50505050905090810190601f1680156103125780820380516001836020036101000a031916815260200191505b50838103825285818151815260200191508051906020019080838360005b8381101561034b578082015181840152602081019050610330565b50505050905090810190601f1680156103785780820380516001836020036101000a031916815260200191505b50965050505050505060405180910390f35b6103b6600480360360208110156103a057600080fd5b810190808035906020019092919050505061089a565b6040518080602001828103825283818151815260200191508051906020019080838360005b838110156103f65780820151818401526020810190506103db565b50505050905090810190601f1680156104235780820380516001836020036101000a031916815260200191505b509250505060405180910390f35b6000809054906101000a900473ffffffffffffffffffffffffffffffffffffffff1681565b6000809054906101000a900473ffffffffffffffffffffffffffffffffffffffff1673ffffffffffffffffffffffffffffffffffffffff163373ffffffffffffffffffffffffffffffffffffffff1614610518576040517f08c379a000000000000000000000000000000000000000000000000000000000815260040180806020018281038252601b8152602001807f4f6e6c79206f776e65722063616e20637265617465206173736574000000000081525060200191505060405180910390fd5b6002600081548092919060010191905055506040518060800160405280600254815260200184815260200182815260200183815250600160006002548152602001908152602001600020600082015181600001556020820151816001019080519060200190610588929190610a14565b5060408201518160020190805190602001906105a5929190610a14565b50606082015181600301559050507fa26a7a3d8c7ebb9fc47c7fdfd8af05a15da0ff8d51b883930669ed3ee87f09de6002546040518082815260200191505060405180910390a1505050565b6000809054906101000a900473ffffffffffffffffffffffffffffffffffffffff1673ffffffffffffffffffffffffffffffffffffffff163373ffffffffffffffffffffffffffffffffffffffff16146106b3576040517f08c379a000000000000000000000000000000000000000000000000000000000815260040180806020018281038252601b8152602001807f4f6e6c79206f776e65722063616e20637265617465206173736574000000000081525060200191505060405180910390fd5b6000809054906101000a900473ffffffffffffffffffffffffffffffffffffffff1673ffffffffffffffffffffffffffffffffffffffff166108fc3073ffffffffffffffffffffffffffffffffffffffff16319081150290604051600060405180830381858888f19350505050158015610731573d6000803e3d6000fd5b50565b60025481565b6001602052806000526040600020600091509050806000015490806001018054600181600116156101000203166002900480601f0160208091040260200160405190810160405280929190818152602001828054600181600116156101000203166002900480156107ec5780601f106107c1576101008083540402835291602001916107ec565b820191906000526020600020905b8154815290600101906020018083116107cf57829003601f168201915b505050505090806002018054600181600116156101000203166002900480601f01602080910402602001604051908101604052809291908181526020018280546001816001161561010002031660029004801561088a5780601f1061085f5761010080835404028352916020019161088a565b820191906000526020600020905b81548152906001019060200180831161086d57829003601f168201915b5050505050908060030154905084565b606060016000838152602001908152602001600020600301543414610927576040517f08c379a000000000000000000000000000000000000000000000000000000000815260040180806020018281038252600e8152602001807f5072696365204d69736d6174636800000000000000000000000000000000000081525060200191505060405180910390fd5b7fe2aeb2ae0272c38a449d3cebb58f6894790a45bfb16f73a8e1761acb1e312053826040518082815260200191505060405180910390a1600160008381526020019081526020016000206002018054600181600116156101000203166002900480601f016020809104026020016040519081016040528092919081815260200182805460018160011615610100020316600290048015610a085780601f106109dd57610100808354040283529160200191610a08565b820191906000526020600020905b8154815290600101906020018083116109eb57829003601f168201915b50505050509050919050565b828054600181600116156101000203166002900490600052602060002090601f016020900481019282601f10610a5557805160ff1916838001178555610a83565b82800160010185558215610a83579182015b82811115610a82578251825591602001919060010190610a67565b5b509050610a909190610a94565b5090565b610ab691905b80821115610ab2576000816000905550600101610a9a565b5090565b9056fea265627a7a72315820a929895f4154713b07d95fa965353822cd3338fb20a88683b932487db216495464736f6c634300050c0032",
  "source": "pragma solidity ^0.5.0;\n\ncontract Market {\n    // create a object for the storing items\n    struct Item {\n        uint uid;\n        string name;\n        string link;\n        uint256 price;\n    }\n\n    // create a var to store the store owner address\n    address payable public store_owner = address(0x5660df1681a32E70704439E9243b1B91c369580e);\n\n    // event to signal purchase\n    event Purchase(uint256 _uid);\n\n    // event to signal item creation\n    event ItemCreated(uint256 _uid);\n\n    // Create map to items list\n    mapping(uint => Item) public items;\n\n    // Store Items Count\n    uint public itemCount;\n\n    constructor () public {\n        // create a test candidate\n        createItem(\"BookX\", 10000000000000000, \"stahshsidid\");\n    }\n\n    modifier onlyOwner() {\n        // ensure the store owner is the msg.sender\n        require(msg.sender == store_owner, \"Only owner can create asset\");\n        _;\n    }\n\n    //funtion to register new candidate\n    function createItem (string memory _name, uint256 _price, string memory _link) public onlyOwner {\n        // create uid for item\n        itemCount++;\n        // create the item\n        items[itemCount] = Item(itemCount, _name, _link, _price);\n        //trigger item created event\n        emit ItemCreated(itemCount);\n    }\n\n    function purchaseItem (uint256 _uid) public payable returns (string memory link){\n        // check if the value sent by caller is equal to price\n        require(msg.value == items[_uid].price, \"Price Mismatch\");\n        // trigger item purchase event\n        emit Purchase(_uid);\n        // return the link to download the item\n        return (items[_uid].link);\n    }\n\n    function withdrawBalance() public onlyOwner {\n        // transfer balance\n        store_owner.transfer(address(this).balance);\n    }\n\n\n// end of market smart contract\n}\n\n",
  "sourcePath": "/Users/stanlyjohnson/Documents/projects/decentralised-marketplace-ethereum/contracts/Market.sol",
  "compiler": {
    "name": "solc",
    "version": "0.5.12+commit.7709ece9.Emscripten.clang"
  },
  "schemaVersion": "3.0.19",
  "updatedAt": "2020-06-26T18:50:00.550Z",
  "networkType": "ethereum",
  "devdoc": {
    "methods": {}
  },
  "userdoc": {
    "methods": {}
  }
}