{
  "contractName": "Market",
  "abi": [
    {
      "inputs": [],
      "payable": false,
      "stateMutability": "nonpayable",
      "type": "constructor"
    },
    {
      "anonymous": false,
      "inputs": [
        {
          "indexed": false,
          "internalType": "uint256",
          "name": "_uid",
          "type": "uint256"
        }
      ],
      "name": "ItemCreated",
      "type": "event"
    },
    {
      "anonymous": false,
      "inputs": [
        {
          "indexed": false,
          "internalType": "uint256",
          "name": "_uid",
          "type": "uint256"
        },
        {
          "indexed": false,
          "internalType": "string",
          "name": "_link",
          "type": "string"
        }
      ],
      "name": "Purchase",
      "type": "event"
    },
    {
      "constant": true,
      "inputs": [],
      "name": "itemCount",
      "outputs": [
        {
          "internalType": "uint256",
          "name": "",
          "type": "uint256"
        }
      ],
      "payable": false,
      "stateMutability": "view",
      "type": "function"
    },
    {
      "constant": true,
      "inputs": [
        {
          "internalType": "uint256",
          "name": "",
          "type": "uint256"
        }
      ],
      "name": "items",
      "outputs": [
        {
          "internalType": "uint256",
          "name": "uid",
          "type": "uint256"
        },
        {
          "internalType": "string",
          "name": "name",
          "type": "string"
        },
        {
          "internalType": "uint256",
          "name": "price",
          "type": "uint256"
        }
      ],
      "payable": false,
      "stateMutability": "view",
      "type": "function"
    },
    {
      "constant": true,
      "inputs": [],
      "name": "store_owner",
      "outputs": [
        {
          "internalType": "address payable",
          "name": "",
          "type": "address"
        }
      ],
      "payable": false,
      "stateMutability": "view",
      "type": "function"
    },
    {
      "constant": false,
      "inputs": [
        {
          "internalType": "string",
          "name": "_name",
          "type": "string"
        },
        {
          "internalType": "uint256",
          "name": "_price",
          "type": "uint256"
        },
        {
          "internalType": "string",
          "name": "_link",
          "type": "string"
        }
      ],
      "name": "createItem",
      "outputs": [],
      "payable": false,
      "stateMutability": "nonpayable",
      "type": "function"
    },
    {
      "constant": false,
      "inputs": [
        {
          "internalType": "uint256",
          "name": "_uid",
          "type": "uint256"
        }
      ],
      "name": "purchaseItem",
      "outputs": [],
      "payable": true,
      "stateMutability": "payable",
      "type": "function"
    },
    {
      "constant": false,
      "inputs": [],
      "name": "withdrawBalance",
      "outputs": [],
      "payable": false,
      "stateMutability": "nonpayable",
      "type": "function"
    }
  ],
  "bytecode": "0x6080604052735660df1681a32e70704439e9243b1b91c369580e6000806101000a81548173ffffffffffffffffffffffffffffffffffffffff021916908373ffffffffffffffffffffffffffffffffffffffff16021790555034801561006457600080fd5b506100e76040518060400160405280600581526020017f426f6f6b58000000000000000000000000000000000000000000000000000000815250662386f26fc100006040518060400160405280600b81526020017f73746168736873696469640000000000000000000000000000000000000000008152506100ec60201b60201c565b61035f565b6000809054906101000a900473ffffffffffffffffffffffffffffffffffffffff1673ffffffffffffffffffffffffffffffffffffffff163373ffffffffffffffffffffffffffffffffffffffff16146101ae576040517f08c379a000000000000000000000000000000000000000000000000000000000815260040180806020018281038252601b8152602001807f4f6e6c79206f776e65722063616e20637265617465206173736574000000000081525060200191505060405180910390fd5b60036000815480929190600101919050555060405180606001604052806003548152602001848152602001838152506001600060035481526020019081526020016000206000820151816000015560208201518160010190805190602001906102189291906102ba565b506040820151816002015590505060405180604001604052806003548152602001828152506002600060035481526020019081526020016000206000820151816000015560208201518160010190805190602001906102789291906102ba565b509050507fa26a7a3d8c7ebb9fc47c7fdfd8af05a15da0ff8d51b883930669ed3ee87f09de6003546040518082815260200191505060405180910390a1505050565b828054600181600116156101000203166002900490600052602060002090601f016020900481019282601f106102fb57805160ff1916838001178555610329565b82800160010185558215610329579182015b8281111561032857825182559160200191906001019061030d565b5b509050610336919061033a565b5090565b61035c91905b80821115610358576000816000905550600101610340565b5090565b90565b6109888061036e6000396000f3fe6080604052600436106100555760003560e01c80630defa6471461005a5780633457770d146100b15780635fd8c7101461021a5780636bfb0d0114610231578063bfb231d21461025c578063d38ea5bf1461031e575b600080fd5b34801561006657600080fd5b5061006f61034c565b604051808273ffffffffffffffffffffffffffffffffffffffff1673ffffffffffffffffffffffffffffffffffffffff16815260200191505060405180910390f35b3480156100bd57600080fd5b50610218600480360360608110156100d457600080fd5b81019080803590602001906401000000008111156100f157600080fd5b82018360208201111561010357600080fd5b8035906020019184600183028401116401000000008311171561012557600080fd5b91908080601f016020809104026020016040519081016040528093929190818152602001838380828437600081840152601f19601f820116905080830192505050505050509192919290803590602001909291908035906020019064010000000081111561019257600080fd5b8201836020820111156101a457600080fd5b803590602001918460018302840111640100000000831117156101c657600080fd5b91908080601f016020809104026020016040519081016040528093929190818152602001838380828437600081840152601f19601f820116905080830192505050505050509192919290505050610371565b005b34801561022657600080fd5b5061022f61053f565b005b34801561023d57600080fd5b50610246610682565b6040518082815260200191505060405180910390f35b34801561026857600080fd5b506102956004803603602081101561027f57600080fd5b8101908080359060200190929190505050610688565b6040518084815260200180602001838152602001828103825284818151815260200191508051906020019080838360005b838110156102e15780820151818401526020810190506102c6565b50505050905090810190601f16801561030e5780820380516001836020036101000a031916815260200191505b5094505050505060405180910390f35b61034a6004803603602081101561033457600080fd5b810190808035906020019092919050505061074a565b005b6000809054906101000a900473ffffffffffffffffffffffffffffffffffffffff1681565b6000809054906101000a900473ffffffffffffffffffffffffffffffffffffffff1673ffffffffffffffffffffffffffffffffffffffff163373ffffffffffffffffffffffffffffffffffffffff1614610433576040517f08c379a000000000000000000000000000000000000000000000000000000000815260040180806020018281038252601b8152602001807f4f6e6c79206f776e65722063616e20637265617465206173736574000000000081525060200191505060405180910390fd5b600360008154809291906001019190505550604051806060016040528060035481526020018481526020018381525060016000600354815260200190815260200160002060008201518160000155602082015181600101908051906020019061049d9291906108ae565b506040820151816002015590505060405180604001604052806003548152602001828152506002600060035481526020019081526020016000206000820151816000015560208201518160010190805190602001906104fd9291906108ae565b509050507fa26a7a3d8c7ebb9fc47c7fdfd8af05a15da0ff8d51b883930669ed3ee87f09de6003546040518082815260200191505060405180910390a1505050565b6000809054906101000a900473ffffffffffffffffffffffffffffffffffffffff1673ffffffffffffffffffffffffffffffffffffffff163373ffffffffffffffffffffffffffffffffffffffff1614610601576040517f08c379a000000000000000000000000000000000000000000000000000000000815260040180806020018281038252601b8152602001807f4f6e6c79206f776e65722063616e20637265617465206173736574000000000081525060200191505060405180910390fd5b6000809054906101000a900473ffffffffffffffffffffffffffffffffffffffff1673ffffffffffffffffffffffffffffffffffffffff166108fc3073ffffffffffffffffffffffffffffffffffffffff16319081150290604051600060405180830381858888f1935050505015801561067f573d6000803e3d6000fd5b50565b60035481565b6001602052806000526040600020600091509050806000015490806001018054600181600116156101000203166002900480601f01602080910402602001604051908101604052809291908181526020018280546001816001161561010002031660029004801561073a5780601f1061070f5761010080835404028352916020019161073a565b820191906000526020600020905b81548152906001019060200180831161071d57829003601f168201915b5050505050908060020154905083565b600160008281526020019081526020016000206002015434146107d5576040517f08c379a000000000000000000000000000000000000000000000000000000000815260040180806020018281038252600e8152602001807f5072696365204d69736d6174636800000000000000000000000000000000000081525060200191505060405180910390fd5b7f4b947521afc1d9322723d89eeb5b2860c6ca8dae2fc0dfab1d339d0fe95753cc8160026000848152602001908152602001600020600101604051808381526020018060200182810382528381815460018160011615610100020316600290048152602001915080546001816001161561010002031660029004801561089c5780601f106108715761010080835404028352916020019161089c565b820191906000526020600020905b81548152906001019060200180831161087f57829003601f168201915b5050935050505060405180910390a150565b828054600181600116156101000203166002900490600052602060002090601f016020900481019282601f106108ef57805160ff191683800117855561091d565b8280016001018555821561091d579182015b8281111561091c578251825591602001919060010190610901565b5b50905061092a919061092e565b5090565b61095091905b8082111561094c576000816000905550600101610934565b5090565b9056fea265627a7a72315820feddd28eb5854eca13e6c08e97dbd39c2bde418b95c3878e79add3ed138b680064736f6c634300050c0032",
  "source": "pragma solidity ^0.5.0;\n\ncontract Market {\n    // create a object for the storing items\n    struct Item {\n        uint uid;\n        string name;\n        uint256 price;\n    }\n\n    struct ItemDetail {\n        uint uid;\n        string link;\n    }\n\n    // create a var to store the store owner address\n    address payable public store_owner = address(0x5660df1681a32E70704439E9243b1B91c369580e);\n\n    // event to signal purchase\n    event Purchase(uint256 _uid, string _link);\n\n    // event to signal item creation\n    event ItemCreated(uint256 _uid);\n\n    // Create map to items list\n    mapping(uint => Item) public items;\n    // Create map to items list\n    mapping(uint => ItemDetail) private itemDetails;\n\n    // Store Items Count\n    uint public itemCount;\n\n    constructor () public {\n        // create a test candidate\n        createItem(\"BookX\", 10000000000000000, \"stahshsidid\");\n    }\n\n    modifier onlyOwner() {\n        // ensure the store owner is the msg.sender\n        require(msg.sender == store_owner, \"Only owner can create asset\");\n        _;\n    }\n\n    //function to create new item\n    function createItem (string memory _name, uint256 _price, string memory _link) public onlyOwner {\n        // create uid for item\n        itemCount++;\n        // create the item\n        items[itemCount] = Item(itemCount, _name, _price);\n        itemDetails[itemCount] = ItemDetail(itemCount, _link);\n        //trigger item created event\n        emit ItemCreated(itemCount);\n    }\n\n    function purchaseItem (uint256 _uid) public payable {\n        // check if the value sent by caller is equal to price\n        require(msg.value == items[_uid].price, \"Price Mismatch\");\n        // trigger item purchase event\n        emit Purchase(_uid, itemDetails[_uid].link);\n    }\n\n    function withdrawBalance() public onlyOwner {\n        // transfer balance\n        store_owner.transfer(address(this).balance);\n    }\n\n\n// end of market smart contract\n}\n\n",
  "sourcePath": "/Users/stanlyjohnson/Documents/projects/decentralised-marketplace-ethereum/contracts/Market.sol",
  "compiler": {
    "name": "solc",
    "version": "0.5.12+commit.7709ece9.Emscripten.clang"
  },
  "schemaVersion": "3.0.19",
  "updatedAt": "2020-06-27T07:10:10.582Z",
  "networkType": "ethereum",
  "devdoc": {
    "methods": {}
  },
  "userdoc": {
    "methods": {}
  }
}