{
  "contractName": "Market",
  "abi": [
    {
      "inputs": [],
      "payable": false,
      "stateMutability": "nonpayable",
      "type": "constructor"
    },
    {
      "anonymous": false,
      "inputs": [
        {
          "indexed": false,
          "internalType": "uint256",
          "name": "_uid",
          "type": "uint256"
        }
      ],
      "name": "ItemCreated",
      "type": "event"
    },
    {
      "anonymous": false,
      "inputs": [
        {
          "indexed": false,
          "internalType": "uint256",
          "name": "_uid",
          "type": "uint256"
        },
        {
          "indexed": false,
          "internalType": "string",
          "name": "_link",
          "type": "string"
        }
      ],
      "name": "Purchase",
      "type": "event"
    },
    {
      "constant": true,
      "inputs": [],
      "name": "itemCount",
      "outputs": [
        {
          "internalType": "uint256",
          "name": "",
          "type": "uint256"
        }
      ],
      "payable": false,
      "stateMutability": "view",
      "type": "function"
    },
    {
      "constant": true,
      "inputs": [
        {
          "internalType": "uint256",
          "name": "",
          "type": "uint256"
        }
      ],
      "name": "items",
      "outputs": [
        {
          "internalType": "uint256",
          "name": "uid",
          "type": "uint256"
        },
        {
          "internalType": "string",
          "name": "name",
          "type": "string"
        },
        {
          "internalType": "uint256",
          "name": "price",
          "type": "uint256"
        },
        {
          "internalType": "address",
          "name": "seller",
          "type": "address"
        }
      ],
      "payable": false,
      "stateMutability": "view",
      "type": "function"
    },
    {
      "constant": true,
      "inputs": [
        {
          "internalType": "address",
          "name": "",
          "type": "address"
        }
      ],
      "name": "seller_balance",
      "outputs": [
        {
          "internalType": "uint256",
          "name": "",
          "type": "uint256"
        }
      ],
      "payable": false,
      "stateMutability": "view",
      "type": "function"
    },
    {
      "constant": false,
      "inputs": [
        {
          "internalType": "string",
          "name": "_name",
          "type": "string"
        },
        {
          "internalType": "uint256",
          "name": "_price",
          "type": "uint256"
        },
        {
          "internalType": "string",
          "name": "_link",
          "type": "string"
        }
      ],
      "name": "createItem",
      "outputs": [
        {
          "internalType": "bool",
          "name": "success",
          "type": "bool"
        }
      ],
      "payable": false,
      "stateMutability": "nonpayable",
      "type": "function"
    },
    {
      "constant": false,
      "inputs": [
        {
          "internalType": "uint256",
          "name": "_uid",
          "type": "uint256"
        }
      ],
      "name": "purchaseItem",
      "outputs": [
        {
          "internalType": "bool",
          "name": "success",
          "type": "bool"
        }
      ],
      "payable": true,
      "stateMutability": "payable",
      "type": "function"
    },
    {
      "constant": false,
      "inputs": [],
      "name": "withdrawBalance",
      "outputs": [
        {
          "internalType": "bool",
          "name": "success",
          "type": "bool"
        }
      ],
      "payable": false,
      "stateMutability": "nonpayable",
      "type": "function"
    }
  ],
  "bytecode": "0x608060405234801561001057600080fd5b506100746040518060400160405280601881526020017f4d6173746572696e6720426c6f636b636861696e2050646600000000000000008152506402540be4006040518060600160405280602e8152602001610d44602e913961007a60201b60201c565b50610295565b6000600360008154809291906001019190505550604051806080016040528060035481526020018581526020018481526020013373ffffffffffffffffffffffffffffffffffffffff1681525060008060035481526020019081526020016000206000820151816000015560208201518160010190805190602001906101019291906101f0565b506040820151816002015560608201518160030160006101000a81548173ffffffffffffffffffffffffffffffffffffffff021916908373ffffffffffffffffffffffffffffffffffffffff16021790555090505060405180604001604052806003548152602001838152506001600060035481526020019081526020016000206000820151816000015560208201518160010190805190602001906101a89291906101f0565b509050507fa26a7a3d8c7ebb9fc47c7fdfd8af05a15da0ff8d51b883930669ed3ee87f09de6003546040518082815260200191505060405180910390a1600190509392505050565b828054600181600116156101000203166002900490600052602060002090601f016020900481019282601f1061023157805160ff191683800117855561025f565b8280016001018555821561025f579182015b8281111561025e578251825591602001919060010190610243565b5b50905061026c9190610270565b5090565b61029291905b8082111561028e576000816000905550600101610276565b5090565b90565b610aa0806102a46000396000f3fe6080604052600436106100555760003560e01c80633457770d1461005a5780635fd8c710146101db5780636bfb0d011461020a578063810bb68214610235578063bfb231d21461029a578063d38ea5bf1461038f575b600080fd5b34801561006657600080fd5b506101c16004803603606081101561007d57600080fd5b810190808035906020019064010000000081111561009a57600080fd5b8201836020820111156100ac57600080fd5b803590602001918460018302840111640100000000831117156100ce57600080fd5b91908080601f016020809104026020016040519081016040528093929190818152602001838380828437600081840152601f19601f820116905080830192505050505050509192919290803590602001909291908035906020019064010000000081111561013b57600080fd5b82018360208201111561014d57600080fd5b8035906020019184600183028401116401000000008311171561016f57600080fd5b91908080601f016020809104026020016040519081016040528093929190818152602001838380828437600081840152601f19601f8201169050808301925050505050505091929192905050506103d5565b604051808215151515815260200191505060405180910390f35b3480156101e757600080fd5b506101f061054b565b604051808215151515815260200191505060405180910390f35b34801561021657600080fd5b5061021f6106d3565b6040518082815260200191505060405180910390f35b34801561024157600080fd5b506102846004803603602081101561025857600080fd5b81019080803573ffffffffffffffffffffffffffffffffffffffff1690602001909291905050506106d9565b6040518082815260200191505060405180910390f35b3480156102a657600080fd5b506102d3600480360360208110156102bd57600080fd5b81019080803590602001909291905050506106f1565b60405180858152602001806020018481526020018373ffffffffffffffffffffffffffffffffffffffff1673ffffffffffffffffffffffffffffffffffffffff168152602001828103825285818151815260200191508051906020019080838360005b83811015610351578082015181840152602081019050610336565b50505050905090810190601f16801561037e5780820380516001836020036101000a031916815260200191505b509550505050505060405180910390f35b6103bb600480360360208110156103a557600080fd5b81019080803590602001909291905050506107d9565b604051808215151515815260200191505060405180910390f35b6000600360008154809291906001019190505550604051806080016040528060035481526020018581526020018481526020013373ffffffffffffffffffffffffffffffffffffffff16815250600080600354815260200190815260200160002060008201518160000155602082015181600101908051906020019061045c9291906109c6565b506040820151816002015560608201518160030160006101000a81548173ffffffffffffffffffffffffffffffffffffffff021916908373ffffffffffffffffffffffffffffffffffffffff16021790555090505060405180604001604052806003548152602001838152506001600060035481526020019081526020016000206000820151816000015560208201518160010190805190602001906105039291906109c6565b509050507fa26a7a3d8c7ebb9fc47c7fdfd8af05a15da0ff8d51b883930669ed3ee87f09de6003546040518082815260200191505060405180910390a1600190509392505050565b600080600260003373ffffffffffffffffffffffffffffffffffffffff1673ffffffffffffffffffffffffffffffffffffffff1681526020019081526020016000205411610601576040517f08c379a00000000000000000000000000000000000000000000000000000000081526004018080602001828103825260168152602001807f53656c6c65722042616c616e6365206973207a65726f0000000000000000000081525060200191505060405180910390fd5b3373ffffffffffffffffffffffffffffffffffffffff166108fc600260003373ffffffffffffffffffffffffffffffffffffffff1673ffffffffffffffffffffffffffffffffffffffff168152602001908152602001600020549081150290604051600060405180830381858888f19350505050158015610686573d6000803e3d6000fd5b506000600260003373ffffffffffffffffffffffffffffffffffffffff1673ffffffffffffffffffffffffffffffffffffffff168152602001908152602001600020819055506001905090565b60035481565b60026020528060005260406000206000915090505481565b6000602052806000526040600020600091509050806000015490806001018054600181600116156101000203166002900480601f0160208091040260200160405190810160405280929190818152602001828054600181600116156101000203166002900480156107a35780601f10610778576101008083540402835291602001916107a3565b820191906000526020600020905b81548152906001019060200180831161078657829003601f168201915b5050505050908060020154908060030160009054906101000a900473ffffffffffffffffffffffffffffffffffffffff16905084565b6000806000838152602001908152602001600020600201543414610865576040517f08c379a000000000000000000000000000000000000000000000000000000000815260040180806020018281038252600e8152602001807f5072696365204d69736d6174636800000000000000000000000000000000000081525060200191505060405180910390fd5b346002600080600086815260200190815260200160002060030160009054906101000a900473ffffffffffffffffffffffffffffffffffffffff1673ffffffffffffffffffffffffffffffffffffffff1673ffffffffffffffffffffffffffffffffffffffff168152602001908152602001600020600082825401925050819055507f4b947521afc1d9322723d89eeb5b2860c6ca8dae2fc0dfab1d339d0fe95753cc826001600085815260200190815260200160002060010160405180838152602001806020018281038252838181546001816001161561010002031660029004815260200191508054600181600116156101000203166002900480156109ae5780601f10610983576101008083540402835291602001916109ae565b820191906000526020600020905b81548152906001019060200180831161099157829003601f168201915b5050935050505060405180910390a160019050919050565b828054600181600116156101000203166002900490600052602060002090601f016020900481019282601f10610a0757805160ff1916838001178555610a35565b82800160010185558215610a35579182015b82811115610a34578251825591602001919060010190610a19565b5b509050610a429190610a46565b5090565b610a6891905b80821115610a64576000816000905550600101610a4c565b5090565b9056fea265627a7a72315820453dcebb838650b2e1c4813a71df35f4515308346252ee0aa5e2d643c1e54fbe64736f6c634300050c0032516d645932394d326a6347525559596e76556e416a387177574d487968736b7532756e43326d7765714d6b474462",
  "source": "pragma solidity ^0.5.0;\n\ncontract Market {\n    // create a object for the storing items\n    struct Item {\n        uint uid;\n        string name;\n        uint256 price;\n        address seller;\n    }\n\n    struct ItemDetail {\n        uint uid;\n        string link;\n    }\n\n    // event to signal purchase\n    event Purchase(uint256 _uid, string _link);\n\n    // event to signal item creation\n    event ItemCreated(uint256 _uid);\n\n    // Create map to items list\n    mapping(uint => Item) public items;\n    // Create map to items list\n    mapping(uint => ItemDetail) private itemDetails;\n    //store balance payable to each seller\n    mapping(address => uint) public seller_balance;\n\n    // Store Items Count\n    uint public itemCount;\n\n    constructor () public {\n        // create dummy asset at initialisation\n        createItem(\"Mastering Blockchain Pdf\", 10000000000, \"QmdY29M2jcGRUYYnvUnAj8qwWMHyhsku2unC2mweqMkGDb\");\n    }\n\n\n    //function to create new item\n    function createItem (string memory _name, uint256 _price, string memory _link) public returns (bool success){\n        // create uid for item\n        itemCount++;\n        // create the item\n        items[itemCount] = Item(itemCount, _name, _price, msg.sender);\n        itemDetails[itemCount] = ItemDetail(itemCount, _link);\n        //trigger item created event\n        emit ItemCreated(itemCount);\n        return true;\n    }\n\n    function purchaseItem (uint256 _uid) public payable returns (bool success){\n        // check if the value sent by caller is equal to price\n        require(msg.value == items[_uid].price, \"Price Mismatch\");\n        // credit purchase price to seller balance\n        seller_balance[items[_uid].seller] += msg.value;\n        // trigger item purchase event\n        emit Purchase(_uid, itemDetails[_uid].link);\n        return true;\n    }\n\n    function withdrawBalance() public returns (bool success){\n        // require that a seller has minimum balance to withdraw\n        require(seller_balance[msg.sender] > 0, \"Seller Balance is zero\");\n        // transfer balance\n        msg.sender.transfer(seller_balance[msg.sender]);\n        // set the seller balance to zero\n        seller_balance[msg.sender] = 0;\n        return true;\n    }\n\n\n// end of market smart contract\n}\n\n",
  "sourcePath": "/Users/stanlyjohnson/Documents/projects/decentralised-marketplace-ethereum/contracts/Market.sol",
  "compiler": {
    "name": "solc",
    "version": "0.5.12+commit.7709ece9.Emscripten.clang"
  },
  "schemaVersion": "3.0.19",
  "updatedAt": "2020-07-12T05:16:07.856Z",
  "networkType": "ethereum",
  "devdoc": {
    "methods": {}
  },
  "userdoc": {
    "methods": {}
  }
}