{
  "contractName": "Market",
  "abi": [
    {
      "inputs": [],
      "payable": false,
      "stateMutability": "nonpayable",
      "type": "constructor"
    },
    {
      "anonymous": false,
      "inputs": [
        {
          "indexed": false,
          "internalType": "uint256",
          "name": "_uid",
          "type": "uint256"
        }
      ],
      "name": "ItemCreated",
      "type": "event"
    },
    {
      "anonymous": false,
      "inputs": [
        {
          "indexed": false,
          "internalType": "uint256",
          "name": "_uid",
          "type": "uint256"
        },
        {
          "indexed": false,
          "internalType": "string",
          "name": "_link",
          "type": "string"
        }
      ],
      "name": "Purchase",
      "type": "event"
    },
    {
      "constant": true,
      "inputs": [],
      "name": "itemCount",
      "outputs": [
        {
          "internalType": "uint256",
          "name": "",
          "type": "uint256"
        }
      ],
      "payable": false,
      "stateMutability": "view",
      "type": "function"
    },
    {
      "constant": true,
      "inputs": [
        {
          "internalType": "uint256",
          "name": "",
          "type": "uint256"
        }
      ],
      "name": "items",
      "outputs": [
        {
          "internalType": "uint256",
          "name": "uid",
          "type": "uint256"
        },
        {
          "internalType": "string",
          "name": "name",
          "type": "string"
        },
        {
          "internalType": "uint256",
          "name": "price",
          "type": "uint256"
        },
        {
          "internalType": "address",
          "name": "seller",
          "type": "address"
        }
      ],
      "payable": false,
      "stateMutability": "view",
      "type": "function"
    },
    {
      "constant": true,
      "inputs": [
        {
          "internalType": "address",
          "name": "",
          "type": "address"
        }
      ],
      "name": "seller_balance",
      "outputs": [
        {
          "internalType": "uint256",
          "name": "",
          "type": "uint256"
        }
      ],
      "payable": false,
      "stateMutability": "view",
      "type": "function"
    },
    {
      "constant": false,
      "inputs": [
        {
          "internalType": "string",
          "name": "_name",
          "type": "string"
        },
        {
          "internalType": "uint256",
          "name": "_price",
          "type": "uint256"
        },
        {
          "internalType": "string",
          "name": "_link",
          "type": "string"
        }
      ],
      "name": "createItem",
      "outputs": [],
      "payable": false,
      "stateMutability": "nonpayable",
      "type": "function"
    },
    {
      "constant": false,
      "inputs": [
        {
          "internalType": "uint256",
          "name": "_uid",
          "type": "uint256"
        }
      ],
      "name": "purchaseItem",
      "outputs": [],
      "payable": true,
      "stateMutability": "payable",
      "type": "function"
    },
    {
      "constant": false,
      "inputs": [],
      "name": "withdrawBalance",
      "outputs": [],
      "payable": false,
      "stateMutability": "nonpayable",
      "type": "function"
    }
  ],
  "bytecode": "0x608060405234801561001057600080fd5b50610a42806100206000396000f3fe6080604052600436106100555760003560e01c80633457770d1461005a5780635fd8c710146101c35780636bfb0d01146101da578063810bb68214610205578063bfb231d21461026a578063d38ea5bf1461035f575b600080fd5b34801561006657600080fd5b506101c16004803603606081101561007d57600080fd5b810190808035906020019064010000000081111561009a57600080fd5b8201836020820111156100ac57600080fd5b803590602001918460018302840111640100000000831117156100ce57600080fd5b91908080601f016020809104026020016040519081016040528093929190818152602001838380828437600081840152601f19601f820116905080830192505050505050509192919290803590602001909291908035906020019064010000000081111561013b57600080fd5b82018360208201111561014d57600080fd5b8035906020019184600183028401116401000000008311171561016f57600080fd5b91908080601f016020809104026020016040519081016040528093929190818152602001838380828437600081840152601f19601f82011690508083019250505050505050919291929050505061038d565b005b3480156101cf57600080fd5b506101d86104fb565b005b3480156101e657600080fd5b506101ef61067d565b6040518082815260200191505060405180910390f35b34801561021157600080fd5b506102546004803603602081101561022857600080fd5b81019080803573ffffffffffffffffffffffffffffffffffffffff169060200190929190505050610683565b6040518082815260200191505060405180910390f35b34801561027657600080fd5b506102a36004803603602081101561028d57600080fd5b810190808035906020019092919050505061069b565b60405180858152602001806020018481526020018373ffffffffffffffffffffffffffffffffffffffff1673ffffffffffffffffffffffffffffffffffffffff168152602001828103825285818151815260200191508051906020019080838360005b83811015610321578082015181840152602081019050610306565b50505050905090810190601f16801561034e5780820380516001836020036101000a031916815260200191505b509550505050505060405180910390f35b61038b6004803603602081101561037557600080fd5b8101908080359060200190929190505050610783565b005b600360008154809291906001019190505550604051806080016040528060035481526020018481526020018381526020013373ffffffffffffffffffffffffffffffffffffffff168152506000806003548152602001908152602001600020600082015181600001556020820151816001019080519060200190610412929190610968565b506040820151816002015560608201518160030160006101000a81548173ffffffffffffffffffffffffffffffffffffffff021916908373ffffffffffffffffffffffffffffffffffffffff16021790555090505060405180604001604052806003548152602001828152506001600060035481526020019081526020016000206000820151816000015560208201518160010190805190602001906104b9929190610968565b509050507fa26a7a3d8c7ebb9fc47c7fdfd8af05a15da0ff8d51b883930669ed3ee87f09de6003546040518082815260200191505060405180910390a1505050565b6000600260003373ffffffffffffffffffffffffffffffffffffffff1673ffffffffffffffffffffffffffffffffffffffff16815260200190815260200160002054116105b0576040517f08c379a00000000000000000000000000000000000000000000000000000000081526004018080602001828103825260168152602001807f53656c6c65722042616c616e6365206973207a65726f0000000000000000000081525060200191505060405180910390fd5b3373ffffffffffffffffffffffffffffffffffffffff166108fc600260003373ffffffffffffffffffffffffffffffffffffffff1673ffffffffffffffffffffffffffffffffffffffff168152602001908152602001600020549081150290604051600060405180830381858888f19350505050158015610635573d6000803e3d6000fd5b506000600260003373ffffffffffffffffffffffffffffffffffffffff1673ffffffffffffffffffffffffffffffffffffffff16815260200190815260200160002081905550565b60035481565b60026020528060005260406000206000915090505481565b6000602052806000526040600020600091509050806000015490806001018054600181600116156101000203166002900480601f01602080910402602001604051908101604052809291908181526020018280546001816001161561010002031660029004801561074d5780601f106107225761010080835404028352916020019161074d565b820191906000526020600020905b81548152906001019060200180831161073057829003601f168201915b5050505050908060020154908060030160009054906101000a900473ffffffffffffffffffffffffffffffffffffffff16905084565b60008082815260200190815260200160002060020154341461080d576040517f08c379a000000000000000000000000000000000000000000000000000000000815260040180806020018281038252600e8152602001807f5072696365204d69736d6174636800000000000000000000000000000000000081525060200191505060405180910390fd5b346002600080600085815260200190815260200160002060030160009054906101000a900473ffffffffffffffffffffffffffffffffffffffff1673ffffffffffffffffffffffffffffffffffffffff1673ffffffffffffffffffffffffffffffffffffffff168152602001908152602001600020600082825401925050819055507f4b947521afc1d9322723d89eeb5b2860c6ca8dae2fc0dfab1d339d0fe95753cc816001600084815260200190815260200160002060010160405180838152602001806020018281038252838181546001816001161561010002031660029004815260200191508054600181600116156101000203166002900480156109565780601f1061092b57610100808354040283529160200191610956565b820191906000526020600020905b81548152906001019060200180831161093957829003601f168201915b5050935050505060405180910390a150565b828054600181600116156101000203166002900490600052602060002090601f016020900481019282601f106109a957805160ff19168380011785556109d7565b828001600101855582156109d7579182015b828111156109d65782518255916020019190600101906109bb565b5b5090506109e491906109e8565b5090565b610a0a91905b80821115610a065760008160009055506001016109ee565b5090565b9056fea265627a7a723158205175b3b9e201aa90bd3e39cd1a379f5fe44fa2bae880e3c8b74326ec79d0fb4064736f6c634300050c0032",
  "source": "pragma solidity ^0.5.0;\n\ncontract Market {\n    // create a object for the storing items\n    struct Item {\n        uint uid;\n        string name;\n        uint256 price;\n        address seller;\n    }\n\n    struct ItemDetail {\n        uint uid;\n        string link;\n    }\n\n    // event to signal purchase\n    event Purchase(uint256 _uid, string _link);\n\n    // event to signal item creation\n    event ItemCreated(uint256 _uid);\n\n    // Create map to items list\n    mapping(uint => Item) public items;\n    // Create map to items list\n    mapping(uint => ItemDetail) private itemDetails;\n    //store balance payable to each seller\n    mapping(address => uint) public seller_balance;\n\n    // Store Items Count\n    uint public itemCount;\n\n    constructor () public {\n    }\n\n\n    //function to create new item\n    function createItem (string memory _name, uint256 _price, string memory _link) public {\n        // create uid for item\n        itemCount++;\n        // create the item\n        items[itemCount] = Item(itemCount, _name, _price, msg.sender);\n        itemDetails[itemCount] = ItemDetail(itemCount, _link);\n        //trigger item created event\n        emit ItemCreated(itemCount);\n    }\n\n    function purchaseItem (uint256 _uid) public payable {\n        // check if the value sent by caller is equal to price\n        require(msg.value == items[_uid].price, \"Price Mismatch\");\n        // credit purchase price to seller balance\n        seller_balance[items[_uid].seller] += msg.value;\n        // trigger item purchase event\n        emit Purchase(_uid, itemDetails[_uid].link);\n    }\n\n    function withdrawBalance() public {\n        // require that a seller has minimum balance to withdraw\n        require(seller_balance[msg.sender] > 0, \"Seller Balance is zero\");\n        // transfer balance\n        msg.sender.transfer(seller_balance[msg.sender]);\n        // set the seller balance to zero\n        seller_balance[msg.sender] = 0;\n    }\n\n\n// end of market smart contract\n}\n\n",
  "sourcePath": "/Users/stanlyjohnson/Documents/projects/decentralised-marketplace-ethereum/contracts/Market.sol",
  "compiler": {
    "name": "solc",
    "version": "0.5.12+commit.7709ece9.Emscripten.clang"
  },
  "schemaVersion": "3.0.19",
  "updatedAt": "2020-07-11T15:21:55.011Z",
  "networkType": "ethereum",
  "devdoc": {
    "methods": {}
  },
  "userdoc": {
    "methods": {}
  }
}