{
  "contractName": "Market",
  "abi": [
    {
      "inputs": [],
      "payable": false,
      "stateMutability": "nonpayable",
      "type": "constructor"
    },
    {
      "constant": true,
      "inputs": [],
      "name": "itemCount",
      "outputs": [
        {
          "internalType": "uint256",
          "name": "",
          "type": "uint256"
        }
      ],
      "payable": false,
      "stateMutability": "view",
      "type": "function"
    },
    {
      "constant": true,
      "inputs": [
        {
          "internalType": "uint256",
          "name": "",
          "type": "uint256"
        }
      ],
      "name": "items",
      "outputs": [
        {
          "internalType": "uint256",
          "name": "uid",
          "type": "uint256"
        },
        {
          "internalType": "string",
          "name": "name",
          "type": "string"
        },
        {
          "internalType": "uint256",
          "name": "price",
          "type": "uint256"
        }
      ],
      "payable": false,
      "stateMutability": "view",
      "type": "function"
    },
    {
      "constant": true,
      "inputs": [],
      "name": "store_owner",
      "outputs": [
        {
          "internalType": "address",
          "name": "",
          "type": "address"
        }
      ],
      "payable": false,
      "stateMutability": "view",
      "type": "function"
    },
    {
      "constant": false,
      "inputs": [
        {
          "internalType": "string",
          "name": "_name",
          "type": "string"
        },
        {
          "internalType": "uint256",
          "name": "_price",
          "type": "uint256"
        }
      ],
      "name": "createItem",
      "outputs": [],
      "payable": false,
      "stateMutability": "nonpayable",
      "type": "function"
    }
  ],
  "bytecode": "0x608060405234801561001057600080fd5b5061005d6040518060400160405280600581526020017f426f6f6b58000000000000000000000000000000000000000000000000000000815250662386f26fc1000061006260201b60201c565b6101ce565b735660df1681a32e70704439e9243b1b91c369580e73ffffffffffffffffffffffffffffffffffffffff163373ffffffffffffffffffffffffffffffffffffffff16146100ae57600080fd5b60016000815480929190600101919050555060405180606001604052806001548152602001838152602001828152506000806001548152602001908152602001600020600082015181600001556020820151816001019080519060200190610117929190610129565b50604082015181600201559050505050565b828054600181600116156101000203166002900490600052602060002090601f016020900481019282601f1061016a57805160ff1916838001178555610198565b82800160010185558215610198579182015b8281111561019757825182559160200191906001019061017c565b5b5090506101a591906101a9565b5090565b6101cb91905b808211156101c75760008160009055506001016101af565b5090565b90565b6104b4806101dd6000396000f3fe608060405234801561001057600080fd5b506004361061004c5760003560e01c80630defa647146100515780636bfb0d011461009b5780638c551742146100b9578063bfb231d21461017e575b600080fd5b610059610233565b604051808273ffffffffffffffffffffffffffffffffffffffff1673ffffffffffffffffffffffffffffffffffffffff16815260200191505060405180910390f35b6100a361024b565b6040518082815260200191505060405180910390f35b61017c600480360360408110156100cf57600080fd5b81019080803590602001906401000000008111156100ec57600080fd5b8201836020820111156100fe57600080fd5b8035906020019184600183028401116401000000008311171561012057600080fd5b91908080601f016020809104026020016040519081016040528093929190818152602001838380828437600081840152601f19601f82011690508083019250505050505050919291929080359060200190929190505050610251565b005b6101aa6004803603602081101561019457600080fd5b8101908080359060200190929190505050610318565b6040518084815260200180602001838152602001828103825284818151815260200191508051906020019080838360005b838110156101f65780820151818401526020810190506101db565b50505050905090810190601f1680156102235780820380516001836020036101000a031916815260200191505b5094505050505060405180910390f35b735660df1681a32e70704439e9243b1b91c369580e81565b60015481565b735660df1681a32e70704439e9243b1b91c369580e73ffffffffffffffffffffffffffffffffffffffff163373ffffffffffffffffffffffffffffffffffffffff161461029d57600080fd5b600160008154809291906001019190505550604051806060016040528060015481526020018381526020018281525060008060015481526020019081526020016000206000820151816000015560208201518160010190805190602001906103069291906103da565b50604082015181600201559050505050565b6000602052806000526040600020600091509050806000015490806001018054600181600116156101000203166002900480601f0160208091040260200160405190810160405280929190818152602001828054600181600116156101000203166002900480156103ca5780601f1061039f576101008083540402835291602001916103ca565b820191906000526020600020905b8154815290600101906020018083116103ad57829003601f168201915b5050505050908060020154905083565b828054600181600116156101000203166002900490600052602060002090601f016020900481019282601f1061041b57805160ff1916838001178555610449565b82800160010185558215610449579182015b8281111561044857825182559160200191906001019061042d565b5b509050610456919061045a565b5090565b61047c91905b80821115610478576000816000905550600101610460565b5090565b9056fea265627a7a72315820a5d6005df559f22d26c5823ad1f10e23826509aeba031a96fc3785d6f9f5ac4164736f6c634300050c0032",
  "source": "pragma solidity ^0.5.0;\n\ncontract Market {\n    // create a object for the storing items\n    struct Item {\n        uint uid;\n        string name;\n        uint256 price;\n    }\n\n    // create a var to store the store owner address\n    address constant public store_owner = address(0x5660df1681a32E70704439E9243b1B91c369580e);\n\n    // Create map to items list\n    mapping(uint => Item) public items;\n\n    // Store Items Count\n    uint public itemCount;\n\n    constructor () public {\n        // create a test candidate\n        createItem(\"BookX\", 10000000000000000);\n    }\n\n    //funtion to register new candidate\n    function createItem (string memory _name, uint256 _price) public {\n        // ensure the store owner is the msg.sender\n        require(msg.sender == store_owner);\n        // create uid for item\n        itemCount++;\n        // create the item\n        items[itemCount] = Item(itemCount, _name, _price);\n    }\n\n\n// end of market smart contract\n}\n\n",
  "sourcePath": "/Users/stanlyjohnson/Documents/projects/decentralised-marketplace-ethereum/contracts/Market.sol",
  "compiler": {
    "name": "solc",
    "version": "0.5.12+commit.7709ece9.Emscripten.clang"
  },
  "schemaVersion": "3.0.19",
  "updatedAt": "2020-06-26T16:08:55.277Z",
  "networkType": "ethereum",
  "devdoc": {
    "methods": {}
  },
  "userdoc": {
    "methods": {}
  }
}